:020000040800F2
:10000000580E00201D020008891900086D14000810
:10001000591900081D0C0008AB3000080000000052
:10002000000000000000000000000000D5230008D0
:10003000110E000800000000391F000861250008AB
:1000400037020008370200083702000837020008AC
:10005000370200083702000837020008370200089C
:10006000370200083702000837020008370200088C
:10007000370200083702000837020008370200087C
:10008000370200083702000837020008370200086C
:10009000370200083702000837020008150E000872
:1000A000370200083702000837020008370200084C
:1000B000052800081D280008352800083702000818
:1000C000370200083702000837020008370200082C
:1000D00037020008C12C00082D2D00083702000847
:1000E000370200083702000837020008370200080C
:1000F00037020008370200083702000837020008FC
:1001000037020008370200083702000837020008EB
:1001100037020008370200083702000837020008DB
:1001200037020008370200083702000837020008CB
:1001300000F002F800F062F80AA090E8000C824497
:100140008344AAF10107DA4501D100F057F8AFF274
:10015000090EBAE80F0013F0010F18BFFB1A43F0A5
:100160000103184744920000649200000A444FF0D3
:10017000000C10F8013B13F0070408BF10F8014B06
:100180001D1108BF10F8015B641E05D010F8016B4B
:10019000641E01F8016BF9D113F0080F1EBF10F8AF
:1001A000014BAD1C0C1B09D16D1E58BF01F801CBD2
:1001B000FAD505E014F8016B01F8016B6D1EF9D555
:1001C0009142D6D37047000000230024002500266A
:1001D000103A28BF78C1FBD8520728BF30C148BFAA
:1001E0000B607047642900F09F80782900F0D88068
:1001F000002070471FB51FBD10B510BD00F090FA6C
:100200001146FFF7F7FF04F029FE00F0AEFA03B441
:10021000FFF7F2FF03BC02F0EBFF00000948804744
:1002200009480047FEE7FEE7FEE7FEE7FEE7FEE7D8
:10023000FEE7FEE7FEE7FEE704480549054A064BF0
:1002400070470000652500083101000858080020AB
:10025000580E0020580A0020580A0020704710B598
:100260004C1084EA530404D54042C1F1000138BF68
:10027000491E1B4204D55242C3F1000338BF5B1E26
:1002800000F0F2F814F0804F04D04042C1F10001B8
:1002900038BF491E14F0004F04D05242C3F100038E
:1002A00038BF5B1E10BD00000FB4044910B503AA8F
:1002B000029800F0B5F910BC5DF814FB780000203E
:1002C0002DE9F0410E460446002020622046E168F8
:1002D000884730B3252805D0D4E901219047206A0A
:1002E000401CF2E7E168204600278847050018D047
:1002F000A5F14100192802D820354FF40067324695
:10030000294620462760FFF76DFF40B1012804D041
:10031000F61D26F007060836D8E7361DD6E728462C
:10032000DAE7206ABDE8F0812DE9F04106460024B5
:1003300010687529314616A510D0AFF3008000284B
:1003400002DA404213A507E031688A0701D512A5F9
:1003500002E0490704D511A5012401E0AFF30080B4
:1003600000210A2206F1240709E0B0FBF2FCB0FBF1
:10037000F2F302FB1C00303078541846491C002868
:10038000F3D123462A463046BDE8F04100F0EEB8EE
:10039000000000002D0000002B00000020000000E5
:1003A00070B504460D4621461068AFF300802188E1
:1003B000090502D50F4A7A4402E00E4A7A440E3209
:1003C000002104F1240305E000F00F060009965D0A
:1003D0005E54491C0028F7D120780023000704D57B
:1003E000702D02D009B1022311322046BDE87040C1
:1003F00000F0BCB8808E000040EA010310B59B07F6
:100400000FD1042A0DD310C808C9121F9C42F8D07E
:1004100020BA19BA884201D9012010BD4FF0FF302F
:1004200010BD1AB1D30703D0521C07E0002010BD45
:1004300010F8013B11F8014B1B1B07D110F8013BD1
:1004400011F8014B1B1B01D1921EF1D1184610BDB2
:1004500002F0FF0343EA032242EA024200F0F4B84A
:10046000704770477047704753EA020C00F069808C
:100470002DE9F04B4FF00006002B1FBFB3FA83F5B8
:1004800003FA05F424FA05F65E4012BF1643B2FAE9
:1004900082F502FA05F4C5F120051EBF22FA05FC1B
:1004A00044EA0C04203556EA044C4FEA144418BFC1
:1004B000641C4FF000084FF00009904271EB030CF0
:1004C00039D3002919BFB1FA81F701FA07F6B0FA5A
:1004D00080F700FA07F6C7F120071EBF20FA07FCD5
:1004E00046EA0C062037B6FBF4FCA7EB0507103FE5
:1004F00007F01F0BCBF120060CFA0BFB2CFA06F6CB
:1005000044BFB3460026202FA4BF5E464FF0000B29
:100510005BEA060C08BF4FF0010B19EB0B09ABFBB4
:10052000027C48EB0608C01B06FB02CC0BFB03CC8D
:1005300071EB0C01C1E70B46024641464846BDE857
:10054000F08B13B54FF000004FF00001AFF30080C7
:10055000BDE81C40704710B500F096F8006810BD6B
:1005600010B5044600F090F8046010BD2DE9F04786
:100570000D4699469246044600F124080168880613
:1005800004D5E06921F01001216000E00120A842BB
:1005900001DD471B00E00027A1697A1902EB090081
:1005A000081AA0612078C00602D42046AFF300806C
:1005B000002608E0D4E901211AF806009047206AD5
:1005C000401C761C20624E45F4DB2078C0060AD51C
:1005D0002046AFF3008006E0D4E9012130209047A7
:1005E000206A401C2062381EA7F10107F4DC07E0F6
:1005F000D4E9012118F805009047206A401C2062C8
:10060000281EA5F10105F3DC2046AFF30080207819
:10061000000602D50220BDE8F0870120FBE70000BC
:10062000074B70B50D467B4400F037F8044628466A
:1006300000F046F810B14FF0FF3070BD204670BD9D
:100640006F4000004FF000020429C0F0128010F04B
:10065000030C00F03B80CCF1040CBCF1020F18BF7E
:1006600000F8012BA8BF20F8022BA1EB0C0100F031
:100670002DB85FEAC17C24BF00F8012B00F8012BE4
:1006800048BF00F8012B704700487047F40700206E
:1006900001694A1C02610878704700B58FB0CDE946
:1006A00001310021059105497944CDE90310114636
:1006B0006846FFF705FE0FB000BD0000E5FFFFFF35
:1006C000007B00F0800070474FF0000200B5134639
:1006D00094469646203922BFA0E80C50A0E80C5062
:1006E000B1F12001BFF4F7AF090728BFA0E80C5013
:1006F00048BF0CC05DF804EB890028BF40F8042B0C
:1007000008BF704748BF20F8022B11F0804F18BF78
:1007100000F8012B7047000000487047F4070020E4
:100720007546FFF7F9FFAE4605006946534620F0CF
:100730000700854618B020B5FFF77EFDBDE82040D4
:100740004FF000064FF000074FF000084FF0000B8D
:1007500021F00701AC46ACE8C009ACE8C009ACE840
:10076000C009ACE8C0098D4670470446AFF300806D
:100770002046FFF74CFD21B1826842F00102826001
:1007800003E0826822F001028260704710B50446DF
:100790001248844208D10121401501F00BFC0021D0
:1007A000601501F007FC17E00D48844208D10121D3
:1007B000001501F0FFFB0021201501F0FBFB0BE011
:1007C0000848844208D10121C80301F0F3FB00214D
:1007D0004FF4004001F0EEFB10BD0000002401408A
:1007E00000280140003C0140014600208A6802F0D8
:1007F00004020AB1012000E0002070470146C86CE5
:1008000080B270470246002013680B400BB10120F4
:1008100000E000207047014600208A6802F00802CC
:100820000AB1012000E000207047000030B5024608
:100830000020002350680F4C20400D790C6844EADA
:1008400005242043506090680B4C2040D1E90254AD
:100850002C434D7944EA450420439060D06A20F44B
:1008600070000C7C641EE4B2234340EA0350D06263
:1008700030BD0000FFFEF0FFFDF7F1FFF0B50446CC
:100880000D4600200021092D11DDE068A5F10A06C2
:1008900006EB4607072606FA07F18843A5F10A0684
:1008A00006EB460603FA06F10843E0600CE0206917
:1008B00005EB4507072606FA07F1884305EB4506D1
:1008C00003FA06F108432061072A0FDA606B561E0F
:1008D00006EB86071F2606FA07F18843561E06EB2D
:1008E000860605FA06F10843606322E00D2A0FDA56
:1008F000206BD61F06EB86071F2606FA07F18843F2
:10090000D61F06EB860605FA06F10843206310E0C1
:10091000E06AA2F10D0606EB86071F2606FA07F12C
:100920008843A2F10D0606EB860605FA06F1084398
:10093000E062F0BD816841F008018160704721B13B
:10094000826842F4A002826003E0826822F4A0027E
:1009500082607047816841F0040181607047000047
:100960002DE9F04F87B002F0C3FF01204C49087019
:100970004C490968A1F2244000EBD0714FEA610AAA
:10098000BAF1010F01DA4FF0010ABAF1640F01DD8B
:100990004FF0640A4448C0F800A04448006806F0DC
:1009A000C4FA0746424A434B06F026FB054606F0CA
:1009B0008DFA0446002C00DA64423F48006806F0D5
:1009C000B4FA05463A4A3B4B06F016FB074606F0DA
:1009D0007DFA8146B9F1000F01DAC9F10009374803
:1009E000007808B9012000E000203449087034483C
:1009F0000078012834D133493348006807F002F801
:100A0000834606F063FF05462E493048006806F02D
:100A1000F9FF834606F05AFF06462A492C4800682B
:100A200006F0F0FF834606F051FF074625492948A6
:100A3000006806F0E7FF834606F048FF8046002086
:100A4000029003900490059033463A464146CDE922
:100A5000005021A0FFF728FC0020194908701CE075
:100A60001648007860B92448006806F02FFF054654
:100A7000E1B253464A46009020A0FFF715FC0CE077
:100A80001D48006806F022FF0546084803680A482A
:100A9000294602681DA0FFF707FC07B0BDE8F08FEC
:100AA00033000020400000203006002048000020D5
:100AB0009A9999999999F13F4400002034060020B1
:100AC0002C0000200000C8426800002064000020C4
:100AD000600000205C0000207B4325643A25643AD6
:100AE00025643A25643A25643A25643A25643A2512
:100AF000643A25647D2400004C0000207B4125647D
:100B00003A25643A25643A25647D24007B422564B5
:100B10003A25643A25647D240000000000B587B0C2
:100B2000012140F2046001F035FA4FF4004001F079
:100B300005FA1020ADF8040000208DF8070001A987
:100B4000324800F087FB3248FFF720FE0120ADF865
:100B5000040000208DF8070001A92E4800F07AFB60
:100B60002D48FFF713FE002002908DF80C008DF841
:100B70000D004FF4602004900020059001208DF8B6
:100B8000180002A92248FFF751FE01212048FFF773
:100B9000F2FD1F48FFF7CEFE002002908DF80C00FA
:100BA0008DF80D004FF46020049000200590012086
:100BB0008DF8180002A91848FFF738FE01211648E1
:100BC000FFF7D9FD1448FFF7B5FE00BF1048FFF747
:100BD00022FE0028FAD10E48FFF7BCFE00BF0C48E9
:100BE000FFF702FE0028FAD100BF0B48FFF713FE03
:100BF0000028FAD10848FFF7ADFE00BF0648FFF70E
:100C0000F3FD0028FAD107B000BD00000008014044
:100C100000240140000C01400028014000BFFEE715
:100C200038B5002000906B4601227521682004F041
:100C30006FF89DF8001022A0FFF736FB04F06AFA67
:100C400000283CD1782005F06FF810B91FA0FFF7FD
:100C50002BFB782004F04CF910B925A0FFF724FBFA
:100C6000C82005F013F810B92BA0FFF71DFB03F007
:100C7000AFF810B932A0FFF717FB3E4804F0B3F805
:100C8000044603F0FFFA10B93BA0FFF70DFB40F25A
:100C9000731002F045FF10B941A0FFF705FBC82013
:100CA00003F020FA10B948A0FFF7FEFA05F042FB66
:100CB000012004F0E7FE10B94CA0FFF7F5FA38BDAB
:100CC00049443A202578200A000000006D70755FC5
:100CD0007365745F73656E736F7220636F6D706C94
:100CE000657465202E2E2E2E2E2E0D0A000000007B
:100CF0006D70755F636F6E6669677572655F666953
:100D0000666F20636F6D706C657465202E2E2E2EBD
:100D10002E2E0D0A000000006D70755F7365745F04
:100D200073616D706C655F7261746520636F6D7067
:100D30006C657465202E2E2E2E2E2E0D0A000000BE
:100D4000646D705F6C6F61645F6D6F74696F6E5F0F
:100D50006472697665725F6669726D77617265202B
:100D6000636F6D706C657465202E2E2E2E2E2E0DE9
:100D70000A00000064060020646D705F7365745F94
:100D80006F7269656E746174696F6E20636F6D70E8
:100D90006C657465202E2E2E2E2E2E0D0A0000005E
:100DA000646D705F656E61626C655F6665617475C8
:100DB000726520636F6D706C657465202E2E2E2E0B
:100DC0002E2E0D0A00000000646D705F7365745F65
:100DD0006669666F5F7261746520636F6D706C65C4
:100DE0007465202E2E2E2E2E2E0D0A006D70755F2E
:100DF0007365745F646D705F737461746520636F95
:100E00006D706C657465202E2E2E2E2E2E0D0A0010
:100E10007047000010B55948006800287ED1202096
:100E2000574908605748007808B9012000E00020C1
:100E30005449087054480078012822D1534800785A
:100E4000401CC0B2514908700A2803D10020087024
:100E50004D4908704E480078401CC0B24C4908709B
:100E600064280ED101F076FA4A490860002048490A
:100E700008704948007808B9012000E00020464980
:100E800008704048007801282BD100F0C7FA434988
:100E9000086043480068401C4149086041480068B8
:100EA0003E49096808443F4908603D480068642895
:100EB0000BD108460068642190FBF1F03A490860C4
:100EC0000020384908603649086037480068B0F5A6
:100ED000FA7F03DA01203549087002E00020334927
:100EE0000870022001F00EFA4042314908600320E8
:100EF00001F008FA2F49086000F056FA2E48016800
:100F00002E48006802F0D4FC2D4908602948016889
:100F10002748006805F0B4FC2A4900E02BE008608F
:100F200029480268234801682148006805F0CEFA84
:100F30002649086022480068224909680844234974
:100F400009680844224908601D4800681D4909686D
:100F500008441E490968401A1E49086002F0A8F8B2
:100F60001648006801F080FE28B91A480168184840
:100F7000006801F0A5FA002010BD00001481214294
:100F800014040140AC0600202A00002028000020A4
:100F9000290000203C000020AD060020B006002003
:100FA000B4060020B806002040000020AE06002055
:100FB0004400002048000020500000204C00002089
:100FC000A0060020A406002054000020A80600204F
:100FD00034000020380000201FB50121084600F031
:100FE000D9FF0121082000F0D5FF2020ADF80C002A
:100FF00048208DF80F0003A9114800F02BF90521B6
:10100000012000F007F92020019000208DF8080051
:101010000C208DF8090001208DF80A0001A800F0CD
:1010200011F817208DF8000002208DF80100012032
:101030008DF802008DF80300684600F0A7FC1FBD84
:10104000000C0140002123498279002A3AD00A4647
:10105000126803689A430B461A600A1D12680368F7
:101060009A430B1D1A60027911440A6803681A43F7
:101070000A60184A0832126803689A43154B08330D
:101080001A601A1D126803689A43124B0C331A60D7
:101090004279102A0ED11A1F126803681A430D4BA9
:1010A00008331A601A1D126803681A43094B0C337F
:1010B0001A600DE00749427911440A6803681A432F
:1010C0000A6005E0027911440A6803689A430A60DD
:1010D000704700000004014000B587B001210846B8
:1010E00000F038FF0121042000F054FF0320ADF888
:1010F000000004208DF8030069461E4800F0AAF89D
:1011000004A801F0A7FD0020ADF810004FF6FF7015
:10111000ADF814000020ADF81600ADF8120004A9D7
:101120004FF0804001F044FD00231A4603214FF0A8
:10113000804001F0D2FB01A801F058FC0A20ADF874
:101140000C0001A9400701F0FBFB0121880701F019
:10115000A3FB01221146900701F051FC00214FF042
:10116000804001F0F6FC0121880701F09BFB07B0ED
:1011700000BD00000008014000B587B00121022039
:1011800000F0E8FE0121042000F004FFC020ADF8CB
:10119000000004208DF8030069461C4800F05AF84E
:1011A00004A801F057FD0020ADF810004FF6FF70C5
:1011B000ADF814000020ADF81600ADF8120004A937
:1011C000134801F0F5FC00231A460321104801F0F2
:1011D00084FB01A801F00AFC0A20ADF80C0001A96B
:1011E0000B4801F0ADFB0121094801F055FB01223C
:1011F0001146074801F003FC0021054801F0A9FC55
:101200000121034801F04EFB07B000BD000801407A
:101210000004004030B500228B071C0F0F2303FA97
:1012200004F20B4B8C1053F824309343084C8D1070
:1012300044F8253023468C1053F824308C07240FB3
:1012400000FA04F42343024C8D1044F8253030BDDD
:10125000080001402DE9F04102460025002600204B
:1012600000230024002791F803C00CF00F0591F82B
:1012700003C00CF0100CBCF1000F03D091F802C0B9
:101280004CEA050591F800C0BCF1000F31D014689C
:1012900000202BE04FF0010C0CFA00F3B1F800C075
:1012A0000CEA03069E4220D183004FF00F0C0CFA8B
:1012B00003F7BC4305FA03FC4CEA040491F803C0AD
:1012C000BCF1280F06D14FF0010C0CFA00FCC2F85B
:1012D00014C00AE091F803C0BCF1480F05D14FF0EB
:1012E000010C0CFA00FCC2F810C0401C0828D1D335
:1012F0001460B1F800C0BCF1FF0F34DD5468002069
:101300002EE000F1080C4FF0010808FA0CF3B1F8D8
:1013100000C00CEA03069E4221D183004FF00F0C5F
:101320000CFA03F7BC4305FA03FC4CEA040491F8F9
:1013300003C0BCF1280F05D100F1080C08FA0CF825
:10134000C2F8148091F803C0BCF1480F07D100F136
:10135000080C4FF0010808FA0CF8C2F81080401C85
:101360000828CED35460BDE8F08141617047016127
:101370007047000010B504460723012221460948A2
:10138000FFF77CFA01210748FFF7D9FA00BF0221D5
:101390000448FFF737FA0028F9D00248FFF72EFA81
:1013A00010BD0000002401402DE9F04100F07CFE5A
:1013B0001248006806F0FAF806464FF06632104B05
:1013C00006F00AF8044605F03BFB0E4908600E499A
:1013D000B1F9020006F0B6FA0C4908600A49B1F901
:1013E000040006F0AFFA0A4908600A49B1F904009E
:1013F00006F0A8FA08490860BDE8F0814806002018
:1014000066660A404C00002038060020500000208C
:10141000540000203E060020580000202DE9F05F17
:101420000420FFF7A7FF4FF47A7100FB01FB584639
:1014300005F07BFD06464FF066320A4B05F0DCFDF9
:1014400004460022084B05F0E9FB804605F03EFD0E
:10145000824640F2EC40824500DD82465046BDE8BF
:10146000F09F000066660A400000B04000BFFEE743
:1014700070B505460E46002400F0D4F8284600F06A
:101480009FF8641C00F026F9304600F099F8641CBF
:1014900000F020F900F0C6F8691CC8B200F090F81E
:1014A000641C00F017F9002000F052F8044600F028
:1014B000EDF8204670BD000010B500200E49086010
:1014C0000E48006820F070400C490860084600682B
:1014D00040F04050086000200949C1F89C010120FB
:1014E00002F0DAFA01200449086002F0D5FA00207F
:1014F0000349C1F8980110BD98812142000C0140B8
:101500000080214210B500200E4908600E48006896
:1015100020F070400C4908600846006840F04050D8
:10152000086001200949C1F89C0102F0B5FA0120C8
:101530000449086002F0B0FA00200449C1F898019B
:1015400010BD000098812142000C01400080214222
:1015500070B5054600241748006820F07040154912
:1015600008600846006840F000400860002616E069
:10157000002011490860022002F08EFA01200F4974
:10158000C1F898016006040E0B487C38006808B169
:10159000601CC4B2022002F07FFA701CC6B2082E92
:1015A000E6DB15B1FFF788FF01E0FFF7ABFF204650
:1015B00070BD0000000C0140988121420080214252
:1015C00070B504461448006820F070401249086065
:1015D0000846006840F04050086000200F4908604D
:1015E000002516E0E0090D49091D08606006040E9B
:1015F000012002F051FA01200949C1F8980102F0D6
:101600004BFA002005490860012002F045FA681CE9
:10161000C5B2082DE6DB70BD000C01409881214267
:101620000080214210B51648006820F0704014492F
:1016300008600846006840F04050086001201149E9
:1016400008601148D0F81C0108B9002010BD012025
:101650000C49091F086002F01FFA00200A49C1F86E
:101660009C0108488038006808B10020EEE701209E
:1016700002F012FA00200349091F08600120E5E783
:10168000000C01409C8121420080214210B50E488F
:10169000006820F070400C4908600846006840F07F
:1016A000405008600020094908600949C1F89C01C0
:1016B000012002F0F1F90120044908600449C1F851
:1016C0009C0102F0E9F910BD000C01409881214213
:1016D0000080214210B500241548006820F07040B9
:1016E000134908600846006840F000400860012087
:1016F0001049086002F0D0F901200F49C1F89801A3
:1017000002F0CAF90AE0601CC4B2322C03DDFFF714
:10171000BDFF002010BD012002F0BEF90548803851
:1017200000680028EFD10349091F08600120F1E794
:10173000000C01409C8121420080214270B5054689
:101740000E46144631462846FFF792FE20700120CF
:1017500070BDF8B506460F4614461D466A46394622
:101760003046FFF7EBFF2DB10120A0409DF800109F
:10177000084305E00120A0409DF8001021EA000088
:10178000C0B200909DF800203946304600F036F88F
:10179000F8BD2DE9F8430746884614461D46089EC5
:1017A0006A4641463846FFF7C9FF28B3601CFF214F
:1017B00001FA00F0C4F108012944491EFF220A4140
:1017C000104300F0FF09C5F1080006FA00F0C6B2A8
:1017D000C4F1070006419DF8000000EA09000090EE
:1017E0009DF80000304300909DF8002041463846A7
:1017F00000F004F8BDE8F8830020FBE737B50446A5
:101800000D4602AB01222946204600F001F83EBDFC
:101810002DE9F04180460D4616461F460024FFF78D
:1018200001FF4046FFF7CCFEFFF754FF2846FFF7C5
:10183000C7FEFFF74FFF00BF06E0385DFFF7C0FEB1
:10184000FFF748FF601CC4B2B442F6DBFFF71EFF8F
:101850000120BDE8F081000008B50121202000F042
:1018600099FB0420ADF8000010208DF80300032040
:101870008DF8020069460248FFF7ECFC08BD000045
:101880000014014010B500F04DF8022000F010F8EF
:10189000032000F021F8002000F014F8002000F0F0
:1018A00037F8002000F02BF8002000F01FF810BDE2
:1018B00038B50446032302226B21D0200094FFF7A1
:1018C00068FF38BD38B50446022304221C21D0200D
:1018D0000094FFF75EFF38BD38B5044602230422AA
:1018E0001B21D0200094FFF754FF38BD10B50446EB
:1018F000234601223721D020FFF72BFF10BD10B562
:101900000446234605226A21D020FFF722FF10BD9E
:1019100010B50446234606226B21D020FFF719FF9D
:1019200010BD000008B50121082000F033FBC020E5
:10193000ADF8000014208DF8030003208DF802009C
:1019400069460448FFF786FCC0210248FFF70FFDF7
:1019500008BD0000000C014000BFFEE708B50121F2
:10196000102000F017FB0F20ADF8000010208DF8BC
:10197000030003208DF8020069460248FFF76AFC65
:1019800008BD0000001001407047000070B5002144
:1019900000230F22C47804B3154C246804F4E064D7
:1019A000C4F5E064210AC1F10403CA40447804FA92
:1019B00003F184781440214309010E4C0678A155A7
:1019C000047804F01F050124AC4005786D11AD00CA
:1019D00005F1E025C5F8004109E0047804F01F0591
:1019E0000124AC40044D0678761145F8264070BDC0
:1019F0000CED00E000E400E080E100E0024901437A
:101A0000024A1160704700000000FA050CED00E08A
:101A100070B5002419E004F1B001C8B2002100F053
:101A2000D4F90021084600F0D0F90021102000F080
:101A3000CCF9002505E00121002000F0C6F9681C62
:101A4000C5B2802DF7DB601CC4B2082CE3DB70BD8F
:101A50002DE9F05F06460F4690461C46DDF828A0AB
:101A60004FF0000BE11704EB5171C910A4EBC10159
:101A700031B92046E11704EB5171C1F3C70506E007
:101A80002046E11704EB5171C910491CCDB23D4607
:101A900016E02946304600F0CFF8B1460CE0594632
:101AA0004A1C1FFA82FB1AF80100012100F08DF98F
:101AB00009F1010000F0FF09C145F0DB681CC5B267
:101AC000A542E6DBBDE8F09F10B540210748FFF7CF
:101AD0004EFC80210548FFF74AFC80210348FFF7B0
:101AE00044FC40210148FFF740FC10BD00100140BC
:101AF00010B540210548FFF73AFC80210348FFF765
:101B000034FC80210148FFF732FC10BD0010014079
:101B100010B540210348FFF72AFC40210148FFF798
:101B200024FC10BD0010014008B50121102000F078
:101B300031FAC020ADF8000014208DF80300032016
:101B40008DF8020069463B48FFF784FBC021394805
:101B5000FFF70DFC0021AE2000F037F90021084608
:101B600000F033F90021102000F02FF9002140206F
:101B700000F02BF90021B02000F027F9002181208E
:101B800000F023F90021FF2000F01FF90021A1201F
:101B900000F01BF90021A62000F017F90021A82071
:101BA00000F013F900213F2000F00FF90021C820B8
:101BB00000F00BF90021D32000F007F900210846BE
:101BC00000F003F90021D52000F0FFF8002180206B
:101BD00000F0FBF80021D82000F0F7F800210520E4
:101BE00000F0F3F80021D92000F0EFF80021F120F7
:101BF00000F0EBF80021DA2000F0E7F800211220D5
:101C000000F0E3F80021DB2000F0DFF800213020B5
:101C100000F0DBF800218D2000F0D7F8002114201F
:101C200000F0D3F80021AF2000F0CFF8FFF7F0FE6E
:101C300008BD00000010014070B504460D4605F1D6
:101C4000B001C8B2002100F0C0F8102141EA141020
:101C5000002100F0BAF804F00F00002100F0B5F800
:101C600070BD00002DE9F04707460E4690469946A4
:101C700000250024A8F12000C5B27F2F02DD002737
:101C8000B01CC6B2B9F1100F24D131463846FFF767
:101C9000D3FF002408E004EB0511194A505C012130
:101CA00000F093F8601CC4B2082CF4DB701CC1B2C5
:101CB0003846FFF7C1FF002409E004EB05110831A5
:101CC0000F4A505C012100F080F8601CC4B2082C5F
:101CD000F3DB12E031463846FFF7AEFF00240AE09E
:101CE00005EB4501074A02EB4101085D012100F0C7
:101CF0006CF8601CC4B2062CF2DBBDE8F087000073
:101D000002800008DA7D00082DE9FF5F0746914652
:101D10001E460E9D4FF0000A002435E0301B401E89
:101D2000C1B20A2004F01AF9B9FBF0F00A21B0FBA5
:101D3000F1F201FB1208BAF1000F14D1701EA0429B
:101D400011DDB8F1000F0CD1AB4605EBDB7149108A
:101D500001FB0471C8B22B4620220199FFF782FFD4
:101D600010E04FF0010AAB4605EBDB71491001FBB7
:101D70000471C8B208F13001CAB22B460199FFF7CD
:101D800071FF00BF601CC4B2B442C7DBBDE8FF9F57
:101D90002DE9F04104460F461546984600260FE00F
:101DA000AA5D434639462046FFF75CFF04F1080070
:101DB000C4B2782C02DD0024B81CC7B2701CC6B2B5
:101DC000A85D0028ECD1BDE8F08170B505460C4651
:101DD0001CB1284600F046F802E0284600F02CF836
:101DE00070BD00002DE9F04105462C464021114808
:101DF000FFF7BBFA002619E0274607F08007802F7F
:101E000004D180210B48FFF7B2FA03E08021094892
:101E1000FFF7ABFA6006040E40210648FFF7A7FA69
:101E200040210448FFF7A1FA701CC6B2082EE3DB7C
:101E3000BDE8F0810010014010B50446FFF744FEF4
:101E40007820FFF7CFFFFFF763FE0020FFF7CAFF00
:101E5000FFF75EFE2046FFF7C5FFFFF759FEFFF7CD
:101E600047FE10BD10B50446FFF72EFE7820FFF7A1
:101E7000B9FFFFF74DFE4020FFF7B4FFFFF748FE24
:101E80002046FFF7AFFFFFF743FEFFF731FE10BD1F
:101E900030B589B005460C460121C80200F07AF839
:101EA0000121042000F076F84FF41060ADF8200016
:101EB00018208DF8230003208DF8220008A91C4863
:101EC000FFF7C8F9ADF81850ADF814400020ADF890
:101ED0001A00ADF8160005A9164800F069FE60204A
:101EE000ADF804000120ADF806000020ADF80A00AE
:101EF000ADF80C0001A90F4800F08AFD01A90D48BA
:101F000000F0DCFD01210B4800F0D8FC0821094855
:101F100000F0CAFD0821074800F00EFE0121054827
:101F200000F0AEFC0121034800F0BCFC09B030BD5C
:101F300000080140002C01407047000001460020CD
:101F4000034A506820F44040084350607047000046
:101F50000010024029B1064AD2690243044BDA61FB
:101F600004E0034AD2698243014BDA617047000002
:101F70000010024029B1064A12690243044B1A615B
:101F800004E0034A12698243014B1A617047000062
:101F90000010024029B1064A92690243044B9A613B
:101FA00004E0034A92698243014B9A617047000042
:101FB0000010024029B1064AD2680243044BDA609D
:101FC00004E0034AD2688243014BDA6070470000A4
:101FD0000010024030B500210022002400232D4DC6
:101FE0006D6805F00C0121B1042905D0082923D121
:101FF00005E0294D056022E0274D05601FE0254DD5
:102000006D6805F47012234D6D6805F48034022567
:1020100005EB92421CB9214D554305600BE01D4D67
:102020006D6805F400351DB11C4D5543056002E097
:10203000194D5543056002E0174D056000BF00BF14
:10204000144D6D6805F0F0010909154D6B5C0568CC
:10205000DD4045600F4D6D6805F4E061090A104DE3
:102060006B5C4568DD4085600A4D6D6805F4605124
:10207000C90A0B4D6B5C4568DD40C560054D6D6858
:1020800005F44041890B074D6B5CC568B5FBF3F562
:10209000056130BD0010024000127A0000093D00C9
:1020A00014000020240000202DE9F04F8FB00CA870
:1020B00089490DAB08AACDE900108849884801F08C
:1020C00093FE8548008800F4807000287ED0089830
:1020D00005F038FC04464FF09D4105F001FB8149B5
:1020E0000860099805F02EFC04464FF09D4105F06C
:1020F000F7FA7D4908600A9805F024FC04464FF081
:102100009D4105F0EDFA794908600B9805F01AFC3D
:1021100004464FF09D4105F0E3FA754908607148A7
:1021200001684FF0804005F06DFC06906F48016833
:10213000069805F067FC82466B4801684FF0404006
:1021400005F060FC06906A480168069805F05AFCA4
:102150008346514605F056FA079005F027FA804667
:1021600001F09EF806464FF06632624B04F044FFE1
:10217000044604F065FC604908605C4801684FF063
:10218000804005F03FFC039058480168039805F033
:1021900039FC8246544801684FF0404005F032FC5B
:1021A000039051480168039805F02CFC8346514682
:1021B00005F026FD81464FF07E5105F023FA0446D6
:1021C00005F0F4F9CDE90401464800E081E001683A
:1021D0004FF0804005F016FC83464348016858469E
:1021E00005F010FC8146414801684FF0804005F041
:1021F00009FC83463E480168584605F003FC8246C8
:10220000494605F0FFF9044605F0D0F90746DDE937
:10221000042301F08DFA4FF06632364BCDE906010A
:1022200004F0EAFE054604F00BFC3449086030482F
:102230000168006805F0E6FB03902C48016800681F
:1022400005F0E0FB029028480168006805F0DAFB21
:10225000834624480168006805F0D4FB5946019084
:1022600005F0D0F98246029905F0CAFC814603992F
:1022700005F0C6FC044605F099F9CDE904011C48B7
:1022800001681848006805F0BDFB824617480168E0
:102290001548006805F0B6FB8346514605F0B2F9D3
:1022A00081464FF0804105F0ADFB044605F07EF914
:1022B0000746DDE9042301F03BFA4FF066320D4B8F
:1022C000CDE9060104F098FE054604F0B9FB0C497F
:1022D00008600FB0BDE8F08F440600203E060020E5
:1022E0003806002054060020580600205C06002016
:1022F0006006002066A64C40480600204C060020E0
:10230000500600200146022904D003290BD00429DD
:1023100017D10FE04FF08042928C10B200224FF0A4
:1023200080439A840FE0094A128810B20022074BBA
:102330001A8008E0064A128810B20022044B1A8064
:1023400001E0002000BF00BF7047000024040040EF
:10235000240800402DE9F05F4221D020FFF788F8E3
:1023600005464121D020FFF783F805EB00242046E5
:1023700005F0E8FA82464FF08E41504605F00EFC1B
:1023800005D24FF08F41504605F03AFC82460D4988
:10239000504605F0A5F9834605F008F980460A4A3B
:1023A0000A4B04F07FFB06460022094B04F024FE92
:1023B000044604F045FB8246504605F087FABDE826
:1023C000F09F00000000AA43A4703D0AD74342409A
:1023D00000002440704710B500F002F810BD000066
:1023E0000CB50020019000903348006840F4803024
:1023F0003149086000BF3048006800F400300090A8
:102400000198401C0190009818B90198B0F5A06F90
:10241000F1D12948006800F4003010B1012000908B
:1024200001E0002000900098012843D12348006873
:1024300040F01000214908600846006820F00300C1
:1024400008600846006840F0020008601A484068CA
:10245000194948600846406848600846406840F4AA
:10246000806048600846406820F47C104860084658
:10247000406840F4E81048600846006840F080700A
:10248000086000BF0C48006800F000700028F9D018
:102490000948406820F00300074948600846406842
:1024A00040F00200486000BF0348406800F00C00A4
:1024B0000828F9D10CBD00000010024000200240A5
:1024C00000B503460A46002B07DA012017490860C9
:1024D00000201749C1F8840106E000201349086074
:1024E00001201349C1F88401184603F0C5FC00F52A
:1024F0008C7010490880002A08DA00200B49083146
:10250000086001200A49C1F88C0107E00120074951
:102510000831086000200649C1F88C01104603F01C
:10252000ABFCC83003490C31088000BD8001224259
:1025300000002242342C0140042808D14FF0E02151
:10254000096941F004014FF0E022116107E04FF00A
:10255000E021096921F004014FF0E0221161704788
:102560007047000010B51348006840F001001149A1
:10257000086008464068104908400E49486008460F
:1025800000680E4908400B4908600846006820F4BE
:10259000802008600846406820F4FE0048604FF440
:1025A0001F008860FFF717FF4FF0006004490860C4
:1025B00010BD0000001002400000FFF8FFFFF6FE13
:1025C00008ED00E0F0B50C46154600220021068C0F
:1025D0004FF6FE773E400684028B018C4FF60C7658
:1025E00032407E1C06EA03162E433243104EB042A0
:1025F0000ED0104EB0420BD0B0F1804F08D00E4E2E
:10260000B04205D00D4EB04202D00D4EB04206D1C0
:102610004FF6FD76314044F00106314305E04FF6B8
:10262000F576314044F00106314302830184F0BD68
:10263000002C01400034014000040040000800402C
:10264000000C0040F0B50C46154600220021002683
:10265000078C4FF6EF7C07EA0C070784028B018C8E
:102660004FF6FF7707EA041640F6FF473A404FF669
:10267000FF7707EA03373A434FF6FF7707EA052764
:102680003A43114FB8420ED0104FB8420BD0B0F1C0
:10269000804F08D00E4FB84205D00E4FB84202D03E
:1026A0000D4FB84206D14FF6DF77394046F010079C
:1026B000394305E04FF65F77394044F0100739435E
:1026C00002830184F0BD0000002C01400034014071
:1026D0000004004000080040000C0040F0B50C462B
:1026E0001546002200210026078C4FF6FF6C07EAF2
:1026F0000C070784828B018C4FF6FF7707EA0426CC
:102700004FF60C773A404FF6FF7707EA03172F434F
:102710003A43114FB8420ED0104FB8420BD0B0F12F
:10272000804F08D00E4FB84205D00E4FB84202D0AD
:102730000D4FB84206D14FF6FF57394046F4807727
:10274000394305E04FF2FF57394044F4807739436D
:1027500082830184F0BD0000002C01400034014060
:102760000004004000080040000C0040F0B50C469A
:102770001546002200210026078C4EF6FF7C07EA52
:102780000C070784828B018C4FF6FF7707EA04362B
:1027900040F6FF473A404FF6FF7707EA05273A43EE
:1027A0004FF6FF7707EA03373A43114FB8420ED08E
:1027B000104FB8420BD0B0F1804F08D00E4FB84246
:1027C00005D00E4FB84202D00D4FB84206D14DF69B
:1027D000FF77394046F48057394305E047F6FF5705
:1027E000394044F48057394382830184F0BD0000AE
:1027F000002C01400034014000040040000800406B
:10280000000C00404FF08040008A4FF08040008A6A
:1028100020F001004FF08041088270470448008892
:102820000348008820F0010001490880704700003B
:102830001004004010B501210D4800F06FF8B0B150
:1028400001210B4800F02BF84FF08040808C00B243
:102850000849086000204FF08041888406480088BD
:1028600000B240420549086000200349088010BDBD
:1028700000080040440000202404004048000020DC
:1028800021B1028842F08002028004E002884FF603
:102890007F731A4002807047CA4302827047CA435E
:1028A0000282704721B1028842F00102028004E0F6
:1028B00002884FF6FE731A400280704731B1B0F8BB
:1028C000442042F40042A0F8442005E0B0F844203F
:1028D000C2F30E02A0F844207047F0B50C4615462E
:1028E0001E460021002200230189028B038C4FF633
:1028F000F877394021434FF6FC473A4040F2011740
:102900003A434FF6DD773B404FF6FF7707EA06176D
:102910002F433B43018102830384F0BD30B502465F
:10292000002000230024158A05EA0103958905EAA1
:10293000010413B10CB1012000E0002030BD000003
:1029400070B505460C46244885420ED02348854282
:102950000BD0B5F1804F08D02148854205D02148E1
:10296000854202D02048854200D100E000BF208887
:1029700050B92389A28861882846FFF723FEE188A1
:10298000284600F0E8F825E0208804280AD12389A9
:10299000A28861882846FFF755FEE188284600F0A6
:1029A000E3F817E0208808280AD12389A2886188E3
:1029B0002846FFF793FEE188284600F0E2F809E098
:1029C0002389A28861882846FFF7D0FEE18828463F
:1029D00000F0E0F870BD0000002C01400034014020
:1029E0000004004000080040000C0040002101806D
:1029F0004180012181800021C180018170471AB18D
:102A000083890B43838102E083898B4383817047F1
:102A100070B5002400220023058C4FF6FE76354069
:102A20000584028C8388048B4FF68F752C40B51E6D
:102A30002C400D882C43751E2A400D892A434D8851
:102A40002A43144DA8420BD0134DA84208D0134D71
:102A5000A84205D0124DA84202D0124DA84213D16F
:102A60004FF6F7752A404D892A434FF6FB752A40E9
:102A70008D882A434FF6FF652B404FF6FF552B40BC
:102A80008D892B43CD892B4383800483CD88858614
:102A9000028470BD002C0140003401400040014020
:102AA00000440140004801400A460021018B4FF6D6
:102AB000F7731940114301837047000070B500227D
:102AC00000230024058C4EF6FF7635400584038CE8
:102AD0008488828B48F6FF752A404FF6FF452A40CE
:102AE0000D884FF6FF7606EA05252A434DF6FF7559
:102AF0002B400D8906EA05352B434D8806EA05353E
:102B00002B430B4DA84202D00A4DA84208D14BF6E8
:102B1000FF752C408D894FF6FF7606EA85152C430C
:102B200084808283CD88A0F84050038470BD00006B
:102B3000002C0140003401400A460021818B4FF2F5
:102B4000FF7319404FF6FF7303EA02231943818391
:102B5000704781847047028B4FF6F3731A400283EB
:102B6000028B0A4302837047028B4FF2FF331A40F5
:102B70000283028B4FF6FF7303EA01231A43028399
:102B80007047828B4FF6F3731A408283828B0A431D
:102B900082837047828B4FF2FF331A408283828B8D
:102BA0004FF6FF7303EA01231A4382837047000044
:102BB000002202881D4B98420ED01D4B98420BD02C
:102BC000B0F1804F08D01B4B984205D01A4B984269
:102BD00002D01A4B984204D14FF68F731A404B889B
:102BE0001A43174B984207D0164B984204D04FF621
:102BF000FF431A40CB881A4302808B8883850B8859
:102C000003850A4B98420BD0094B984208D00E4BD3
:102C1000984205D00D4B984202D00D4B984201D1FD
:102C20000B7A03860123838270470000002C014049
:102C3000003401400004004000080040000C004047
:102C400000100040001400400040014000440140DA
:102C5000004801404FF6FF71818000210180C18052
:102C6000418001727047000070B505460F49284643
:102C700004F094FE08D30E49284604F08FFF03D3D6
:102C80000C48007801280DD1012400200A49086071
:102C90000A49C1F884010849083108600749C1F8A8
:102CA0008C0100E00024204670BD0000000020C21E
:102CB0000000204232000020800122420000224217
:102CC0001849098801F4004159BB1649098801F4E3
:102CD000804161B10A2803D00021124A118020E00E
:102CE0001049098841F400410E4A118019E00D286D
:102CF00006D10C49098841F480410A4A118010E04C
:102D000008490988C1F30D01074A5054054909884B
:102D1000491C044A118011460988C72901DD002198
:102D2000118070477C000020FC06002010B540F2A6
:102D30002551484800F0F8F8002823D0454800F015
:102D4000AFF9454908600846007844490870424890
:102D50000068592802D10220414908703E480068A5
:102D6000582802D101203E4908703B4800685A2883
:102D700009D100203B4908703B4908703B49087065
:102D80003B49087064E03448006841280AD10120BA
:102D900034490870002034490870344908703449B7
:102DA000087055E02C48006845280BD100202D49BB
:102DB000087001202C49087000202C4908702C490B
:102DC000087045E02448006843280BD100202549BD
:102DD0000870254908700120244908700020244902
:102DE000087035E01C48006847280AD100201D49BA
:102DF00008701D4908701D49087001201C490870A1
:102E000026E015480068422803D013480068462889
:102E100006D102201549087000201549087017E0F6
:102E20000D480068442803D00B480068482806D1A4
:102E300000200E49087002200D49087008E00020AB
:102E4000084908700849087008490870084908705E
:102E500010BD0000004400409000002080000020D1
:102E6000310000202D0000202E0000202F00002027
:102E70003000002021B1828942F40052828104E0B6
:102E800082894DF6FF731A408281704710B504465F
:102E90002048844209D101218803FFF78BF80021E3
:102EA0004FF48040FFF786F832E01B48844209D196
:102EB00001214804FFF75EF800214FF40030FFF7CE
:102EC00059F825E01548844209D101218804FFF70B
:102ED00051F800214FF48020FFF74CF818E010481B
:102EE000844209D10121C804FFF744F800214FF4BE
:102EF0000020FFF73FF80BE00A48844208D1012187
:102F00000805FFF737F800214FF48010FFF732F87B
:102F100010BD00000038014000440040004800405F
:102F2000004C00400050004070B5024600240023D1
:102F30000025002040F66A16B14200D100BFC1F35F
:102F4000421501F01F03012606FA03F3012D02D1F9
:102F50009689334006E0022D02D1168A334001E003
:102F6000968A33400C12012606FA04F4168834407F
:102F700013B10CB1012000E0002070BDF0B5034694
:102F8000002400260025002040F66A17B94200D12F
:102F900000BF1846C1F3421401F01F06012707FACB
:102FA00006F5012C01D10C3004E0022C01D11030C7
:102FB00000E014301AB107682F43076002E0076889
:102FC000AF430760F0BD00002DE9F04786B005462D
:102FD0000E460024A24600BFA1460027B08900B1DA
:102FE00000BF2F462C8A4CF6FF700440F088044343
:102FF0002C82AC894EF6F3100440B0883189084326
:10300000718908430443AC81AC8A4FF6FF40044009
:10301000B0890443AC8201A8FEF7DCFF1F48874259
:1030200002D1DDF810A001E0DDF80CA0A88900F4C1
:10303000004040B10AEBCA0000EB0A1031684900B9
:10304000B0FBF1F807E00AEBCA0000EB0A103168A8
:103050008900B0FBF1F86420B8FBF0F0040120090E
:10306000642101FB1089A88900F4004040B132209E
:1030700000EBC900B0FBF1F000F00700044308E0EA
:10308000322000EB09106421B0FBF1F000F00F00DA
:1030900004432C8106B0BDE8F087000000380140F1
:1030A00001468888C0F30800704700BFFEE70000B3
:1030B0004FF461600E4909684242914202DA41428E
:1030C0000B4A11600A490968814201DD084908601C
:1030D000084909684242914202DA4142054A1160B8
:1030E00004490968814201DD024908607047000017
:1030F0003400002038000020490050EAC12018BFE9
:1031000004204A0D18BF40F0010040F2FF72B2EBFC
:10311000515F08BF40F00200012808BF052070473A
:103120002DE9F0414F1E00EBC7010446D1E9000133
:1031300015461E4637F006020DD02A46334603F0E8
:103140005BFF7F1E04EBC703D3E9002303F0AAFC57
:1031500037F00602F1D1022F25D0042F13D0062F0D
:1031600018BFBDE8F0812A46334603F045FFD4E995
:103170000A2303F097FC2A46334603F03DFFD4E9C7
:10318000082303F08FFC2A46334603F035FFD4E9C9
:10319000062303F087FC2A46334603F02DFFD4E9CB
:1031A000042303F07FFC2A46334603F025FFD4E9CD
:1031B000022303F077FC2A46334603F01DFFD4E9CF
:1031C0000023BDE8F04103F06DBC012204F0BFBD57
:1031D00003F068BC002213461046114603F01EBDE2
:1031E000024A0020110704F0B2BD000001FDFFFFFC
:1031F000014600BF704700002DE9FE4F06460F460E
:103200000025684601F06AFA002442E056F82400DE
:1032100057F82410A0EB010ABAF1000F01DB514668
:1032200001E0CAF10001084604F08CFB83464FF030
:103230008F4104F055FA80465DF82400002104F027
:1032400011FB16D05DF82410404604F049FA82467E
:103250004FF07E5104F0D4FC814629F0004A0F481B
:10326000416A504604F09AFC12D20120A040054366
:103270000EE00A48C169404604F090FB05D30748B8
:10328000016A404604F08AFC02D20120A0400543B6
:10329000641C032CBADB2846BDE8FE8F1C860008A0
:1032A0002DE9F04D8D4F21F0004A86B005460C46C1
:1032B000BA452ADBAAEB070028430AD08848824592
:1032C00001DC1AD1CDB106B02846BDE8F04DFFF7BC
:1032D0007CBF844A844B284603F08EFE07460E4688
:1032E000824A834B2846214603F086FE06B03A46C2
:1032F0003346BDE8F04D03F0D5BB0120FDF730F9B2
:1033000006B0BDE8F04DFFF765BF7A48824542DA66
:10331000BAF1795F0BDA2846FFF7EEFE042808BF02
:10332000FFF75EFF284606B02146BDE8F08D2A462D
:103330000B46104603F060FE834602466E480E467A
:103340000B4606217844FFF7EBFE5A46334603F05E
:1033500053FE804669488A465A46334604217844DB
:10336000FFF7DEFE5A46334603F046FE00223B4698
:1033700003F098FB02460B464046514603F04EFCD4
:103380002A46234603F038FE06B02A462346BDE807
:10339000F04D03F087BB284624F0004100223D4653
:1033A0003B4603F027FF4FF0FF3204F0D0FC064607
:1033B000024653480F460B4606217844FFF7B0FEFD
:1033C00032463B4603F018FECDE900014D48324637
:1033D0003B4604217844FFF7A3FE32463B4603F008
:1033E0000BFE00222B4603F05DFB83460291304624
:1033F000394603F045F8804643480D46504517DCF2
:10340000DDE900015A46029B03F008FC42462B46C8
:1034100003F0F2FD42462B4603F044FB012204F088
:1034200096FC304A304B03F0D7FF304A304B4CE02B
:103430004FF0000A52460B46404603F033FBCDE9FD
:10344000031052462B461046194603F0D5FD32466E
:103450003B4603F0CFFEDDE9033203F0DFFB064617
:103460000F46DDE900015A46029B03F0D7FB834675
:10347000009101223046394604F069FC194A1A4B82
:1034800003F0B8FE06460F4601224046294604F0E6
:103490005EFC5A46009B03F0AFFD32463B4603F00C
:1034A0009BFF06460F4601225046294604F04FFC7A
:1034B0000E4DDFF858802A46434603F09BFE324605
:1034C0003B4603F097FE2A46434603F093FE002C4A
:1034D000D8BF81F0004106B0BDE8F08D0000F03F9C
:1034E0000000F07F075C143326A6913C182D44544D
:1034F000FB21F93F0000E03F205F0000365F000045
:10350000AA5E0000C05E00003333EF3FFB21E93FBD
:103510002DE9F84F04460D4621F000400091734913
:10352000814211DC7249884201DC06D12CB120466F
:103530002946BDE8F84FFFF748BE6E48002DCCBFC6
:103540006D496E49BDE8F88F6D49814211DD6D49C5
:103550008142D8BF4FF0FF366DDD20462946FFF788
:10356000CBFD042808BFFFF73BFE20462946BDE8F7
:10357000F88F6549654F25F00045814233DD644988
:10358000814219DD002632464FF08043204629460D
:1035900003F088FA80468A4601222046294604F034
:1035A000D6FB00223B4603F017FF4246534603F08A
:1035B00035FB04460D463EE001260022BA463B4656
:1035C0002046294603F06EFA80460F4600225346F5
:1035D0002046294603F000FF42463B4603F01EFB0F
:1035E00004460D4627E04B4981421BDDDFF828A148
:1035F0000226002253462046294603F0FDFC002205
:103600003B4603F04FFA80460F46002253462046C1
:10361000294603F0E1FE42463B4603F0FFFA04462A
:103620000D4608E0032622462B4600203B4903F0C6
:10363000F5FA04460D4622462B461046194603F07D
:10364000DBFC8B46824602460B4603F0D5FC074660
:103650000246334888460B4606217844FFF760FD52
:1036600052465B4603F0C8FC82462E488B463A46DB
:10367000434605217844FFF753FD3A46434603F09D
:10368000BBFC02460B46002E504659460CDA03F0AE
:1036900009FA22462B4603F0AFFC01B022462B4626
:1036A000BDE8F04F03F0A6BD03F0FCF922462B461F
:1036B00003F0A2FC1C4A7A4402EBC603D3E90023C0
:1036C00003F08AFE22462B4603F086FE174A7A4410
:1036D00002EBC603D3E9002303F08CFD009A002A15
:1036E000B8BF81F00041BDE8F88F00000000104431
:1036F0000000F07F182D4454FB21F93FFB21F9BF56
:103700000000DC3F0000203E0000F33F0000F03FDF
:103710000000E63F008003400000F83F0000F0BFDB
:10372000C25C0000805C00001E5C0000E65B0000E4
:103730002DE9F04D9446CCF1000423F000464CEA0C
:103740000404524F46EAD4749A46884621F0004257
:10375000BC4206D8454240EA050442EAD474BC4261
:1037600004D9BDE8F04D6246FFF732BDAAF14055DD
:10377000A5F17F6555EA0C040BD0022404EAAA7473
:10378000434DDFF810E144EAD87452EA000B04D04C
:103790000CE0BDE8F04DFFF7BBBE002C14BF012CC0
:1037A000BDE8F08D022C30D0032C32D056EA0C0B41
:1037B0000AD0BE4220D1BA4209D126F0804622F07A
:1037C00080423346114617E000291ADB25E0DFF876
:1037D000C8B0FB44002C04BFDBE90001BDE8F08D5C
:1037E000012C02BFDBE9000181F00041BDE8F08D52
:1037F000022C0AD0032C0CD0BA4212D1B8F1000F1F
:103800000BDA23482549BDE8F08D28462449BDE858
:10381000F08D28467146BDE8F08D1D482149BDE870
:10382000F08D921B12153C2AC4BF19481D490EDCAD
:10383000BAF1000FBEBF12F13C0F0020014606DBBB
:10384000624603F0EBF921F00041FFF761FE002C26
:1038500008BFBDE8F08D012C04BF81F00041BDE838
:10386000F08D114A114B022C07D003F0B5FD2A460A
:10387000BDE8F04D0A4B03F0AFBD03F0ADFD2A46A5
:10388000BDE8F04D064B03F0B5BC00000000F07F32
:10389000182D4454FB2109C07A5B0000FB21F9BFBD
:1038A000FB210940FB21F93F075C143326A6A13C0C
:1038B0002DE9F04704460D4626460B480168284688
:1038C00004F0A0F8814631460848006804F09AF8F0
:1038D0008246494603F096FE804603F0F7FF07460E
:1038E0003846BDE8F0870000600000205C00002042
:1038F0002DE9F05F0723012208212448FCF7BEFFD1
:1039000001212248FDF71BF800BF02211F48FCF7E8
:1039100079FF0028F9D01D48FCF770FF834603F0BB
:103920001BFB06464FF06632194B03F065FB04465D
:103930000022184B03F072F9804603F0C7FA824662
:1039400015480068401C144908601448016801EBE0
:103950000A001249086010480068042814D1086859
:10396000C11700EB91714FEAA10A00210B4A1160C7
:10397000094A1160BAF1030F03DB012008490870FE
:1039800002E0002006490870BDE8F09F00280140D1
:1039900066660A400000B040F4060020F8060020E9
:1039A0002B0000202DE9F0410446E07800F0C0062D
:1039B000E07800F03F05607800F0010098B1EF106A
:1039C0002846E91705EB5171C910A5EBC101491C47
:1039D00001F0FF080B48006820B10A484146026820
:1039E0003846904700BF607800F0080030B10548C5
:1039F000406818B1B011034A516888470020BDE8FB
:103A0000F0810000E407002010B56FF00400FEF71D
:103A100093FD0A4800680A49B0FBF1F009490870B3
:103A20000846007800EB4001C1EBC0104FF6FF7173
:103A300001EAC0000449088010BD00000000002019
:103A400000127A0070000020720000200146114A26
:103A500012884A434FF0E0235A6100229A611A46C5
:103A6000126942F001021A6100BF4FF0E0221069B2
:103A700000F001021AB100F48032002AF5D04FF0B4
:103A8000E022126922F001024FF0E0231A610022C5
:103A90009A617047720000200146114A12784A4329
:103AA0004FF0E0235A6100229A611A46126942F0EF
:103AB00001021A6100BF4FF0E022106900F001021C
:103AC0001AB100F48032002AF5D04FF0E0221269DA
:103AD00022F001024FF0E0231A6100229A61704740
:103AE0007000002038B5044664B120208DF8000035
:103AF00028208DF8010030208DF8020038208DF844
:103B0000030004E0A32204216846FCF7A1FC6A46F6
:103B1000042140F69E2002F06FF901F05FFD38BDF0
:103B20003EB5044602208DF80000CA208DF8010041
:103B3000E3208DF8020009208DF803006A46042175
:103B4000682002F059F9A3208DF8000004F040002D
:103B500048B1C0208DF80100C8208DF80200C220B5
:103B60008DF8030006E0A3208DF801008DF8020017
:103B70008DF8030004F4C07048B1C4208DF804002F
:103B8000CC208DF80500C6208DF8060006E0A320A5
:103B90008DF804008DF805008DF80600A3208DF83F
:103BA00007008DF808008DF809006A460A2140F6E2
:103BB000A72002F021F904F0030018B120208DF8AD
:103BC000000002E0D8208DF800006A46012140F68E
:103BD000B62002F011F904F0200018B1012000F025
:103BE000ADF802E0002000F0A9F804F4C07008B3BA
:103BF00004F4807060B1B2208DF800008B208DF845
:103C00000100B6208DF802009B208DF803000BE028
:103C1000B0208DF8000080208DF80100B4208DF8D0
:103C2000020090208DF803006A46042140F6A2208D
:103C300002F0E2F804F0010020B3F8208DF8000053
:103C40006A4601214FF40B6002F0D6F8FA210720F2
:103C500000F02CFC072000F0F3FB012000F013FC27
:103C6000642000F0F3FC4FF4FA7000F002FDC8216C
:103C7000304800F0A3FB282000F0BCFB0A2000F035
:103C8000CCFB08E0D8208DF800006A4601214FF4F3
:103C90000B6002F0B1F804F0020018B1D9208DF8E1
:103CA000000002E0D8208DF800006A46012140F2B1
:103CB0003D7002F0A1F804F0040018B1012000F0FA
:103CC00069F802E0002000F065F804F0100018B177
:103CD0000120FFF707FF02E00020FFF703FF44F099
:103CE00008001549488101F079FC002012498873C9
:103CF00004F0400018B10846807B801D887304F4EE
:103D0000C07020B10C48807B801D0B49887304F083
:103D1000140020B10848807B10300749887304F0F4
:103D2000030020B10448807B001D034988730020F4
:103D30003EBD000009E3CA02E40700203EB5044688
:103D40006CB10EA1D1E900208968CDE90020029173
:103D50006A4609214FF4976002F04EF83EBD0AA270
:103D6000D2E900109268CDE9010200916A4609216A
:103D70004FF4976002F040F8F0E70000B8AAB38D66
:103D8000B4980D355D000000B8AAAAAAB088C3C5D2
:103D9000C700000038B5044664B1C0208DF80000AB
:103DA000C2208DF80100C4208DF80200C6208DF8D5
:103DB000030004E08B2204216846FCF749FB6A46B5
:103DC000042140F6982002F017F801F007FC38BDF6
:103DD00010B5C8234FF48062024940F6F63001F076
:103DE00091FA10BD448600082DE9F04F8DB00746CA
:103DF000884615469946DDE9166B00240020308080
:103E00006B49887B5A4605A901F048FB18B1601E32
:103E10000DB0BDE8F08F6648807A00F014000028ED
:103E200067D09DF8140000069DF8151040EA014087
:103E30009DF8161040EA01209DF8171008432860ED
:103E40009DF8180000069DF8191040EA01409DF801
:103E50001A1040EA01209DF81B10084368609DF885
:103E60001C0000069DF81D1040EA01409DF81E1040
:103E700040EA01209DF81F100843A8609DF820002B
:103E800000069DF8211040EA01409DF8221040EA0A
:103E900001209DF823100843E86004F11000C4B22B
:103EA000286800140190686800140290A868001443
:103EB0000390E8680014049001984043029901FBC4
:103EC0000100039901FB0100049901FB010ABAF109
:103ED000706F02DBBAF1885F05DD01F07FFB002027
:103EE0003080401E94E7B6F9000040F480703080C6
:103EF00000BF2F48807A00F0400020B305A9601C65
:103F0000085C095D40EA012000B2A8F8000005A99C
:103F1000E01C095C05AAA01C105C41EA002000B26C
:103F2000A8F8020005A9601D095C201D105C41EA8B
:103F3000002000B2A8F80400A01DC4B2B6F9000029
:103F400040F0080030801A48408900F4C07008B37F
:103F500005A9601C085C095D40EA012000B23880B8
:103F600005A9E01C095C05AAA01C105C41EA002020
:103F700000B2788005A9601D095C201D105C41EA33
:103F8000002000B2B880A01DC4B2B6F9000040F015
:103F9000700030800648807A00F0030018B105A94F
:103FA0000819FFF7FFFC484601F06DFF00202FE7DE
:103FB000E407002070B588B0064601A800F0F6FFBF
:103FC000BDF804000021C90341EA5045C403444838
:103FD000007A00F0030056F8200005904048007A6F
:103FE00000F0040010B10598404205903C48007A6A
:103FF000C0F3C10056F8200006903948007A00F05E
:10400000200010B10698404206903548007AC0F36F
:10401000811056F8200007903148008900F4807024
:1040200010B10798404207900598C117A0FB0423E0
:1040300001FB043100FB0510810041EA92700590FC
:104040000698C117A0FB042301FB043100FB0510F7
:10405000810041EA927006900798C117A0FB0423E3
:1040600001FB043100FB0510810041EA92700790CA
:104070000598000E8DF808000598000C8DF80900D1
:104080000598000A8DF80A000598C0B28DF80B005B
:104090000698000E8DF80C000698000C8DF80D00A7
:1040A0000698000A8DF80E000698C0B28DF80F0031
:1040B0000798000E8DF810000798000C8DF811007D
:1040C0000798000A8DF812000798C0B28DF8130007
:1040D00002AA0C214FF4257001F08EFE08B070BDCD
:1040E000E407002030B585B0044616A207CA02AB2B
:1040F00007C3C82C03DD4FF0FF3005B030BDC8202A
:1041000090FBF4F0401E85B2280A8DF80000E8B25A
:104110008DF801006A46022140F2162001F06CFE83
:1041200010B14FF0FF30E8E702AA0C2140F6C120A1
:1041300001F062FE10B14FF0FF30DEE704488481E9
:104140000020DAE7FEF2ABC4AAF1DFDFBBAFDFDFAE
:10415000E40700201FB504464848007A00F0030039
:1041600054F8200001904548007A00F0040010B196
:104170000198404201904148007AC0F3C10054F8D0
:10418000200002903D48007A00F0200010B1029813
:10419000404202903948007AC0F3811054F8200060
:1041A00003903648008900F4807010B103984042B3
:1041B00003903349019880FB0101800F40EA8100A0
:1041C00001902F49029880FB0110820042EA917011
:1041D00002902B49039880FB0110820042EA917003
:1041E00003900198000E8DF800000198000C8DF8E6
:1041F00001000198000A8DF802000198C0B28DF804
:1042000003006A4604214FF4747001F0F5FD18B103
:104210004FF0FF3004B010BD0298000E8DF8000082
:104220000298000C8DF801000298000A8DF8020037
:104230000298C0B28DF803006A4604214FF47570ED
:1042400001F0DAFD10B14FF0FF30E3E70398000E04
:104250008DF800000398000C8DF801000398000A07
:104260008DF802000398C0B28DF803006A4604215D
:104270004FF4767001F0C0FDCCE70000E4070020A9
:1042800009E3CA0210B586B0044647A0006803904F
:1042900046A00068029046A00068019045A0006812
:1042A000009004F0030003A9085C8DF8140003A833
:1042B000C4F3C101405C8DF8150003A8C4F381115B
:1042C000405C8DF8160004F0030002A9085C8DF82C
:1042D000100002A8C4F3C101405C8DF8110002A8CF
:1042E000C4F38111405C8DF8120005AA032140F24D
:1042F000264001F081FD18B14FF0FF3006B010BD2F
:1043000004AA032140F22A4001F076FD10B14FF0DB
:10431000FF30F3E7019805900098049004F0040042
:1043200058B19DF8140040F001008DF814009DF87C
:10433000100040F001008DF8100004F0200058B18A
:104340009DF8150040F001008DF815009DF8110052
:1043500040F001008DF8110004F4807058B19DF810
:10436000160040F001008DF816009DF8120040F094
:1043700001008DF8120005AA03214FF4886001F0B6
:104380003BFD10B14FF0FF30B8E704AA032140F223
:10439000314001F031FD10B14FF0FF30AEE706487B
:1043A00004810020AAE700004CCD6C000CC92C0051
:1043B0003656760026466600E4070020F8B5054626
:1043C0000E464FF47A7095FBF0F000FB06F4200ED9
:1043D0008DF80000200C8DF80100200A8DF80200F5
:1043E000E0B28DF803006A4604214FF4AE7001F08C
:1043F00003FDF8BD38B50446052094FBF0F084B207
:1044000020128DF80000E0B28DF801006A4602210A
:104410004FF4AD7001F0F0FC38BD38B5044605200E
:1044200094FBF0F084B220128DF80000E0B28DF819
:1044300001006A4602214FF4AC7001F0DDFC38BD8A
:1044400038B504460020009004F0010020B19DF82A
:10445000000040F03000009004F0020020B19DF810
:10446000000040F00C00009004F0040020B19DF822
:10447000000040F0030000906A4601214FF4A47050
:1044800001F0BAFC38BD38B50446012C01DA01242C
:1044900002E0042C00DD0424601EC0B200906A46D5
:1044A000012140F24F1001F0A7FC38BD2DE9FC4777
:1044B00006460F4606F0070010B1B7F5C86F03DDDA
:1044C0004FF0FF30BDE8FC87384603F053FA8146D1
:1044D000594903F005F98046684600F041FD9DF812
:1044E0000000022806D0042816D0082826D010285C
:1044F00048D135E04FF08D41404603F083FA8146C4
:1045000003F000FA84B24D49404603F07BFA81463D
:1045100003F0F8F985B238E04FF08C41404603F0E3
:1045200071FA814603F0EEF984B24549404603F042
:1045300069FA814603F0E6F985B226E04FF08B4137
:10454000404603F05FFA814603F0DCF984B23D494E
:10455000404603F057FA814603F0D4F985B214E0DF
:104560004FF08A41404603F04DFA814603F0CAF904
:1045700084B23549404603F045FA814603F0C2F95A
:1045800085B202E04FF0FF309CE700BF20128DF8AB
:104590000400E0B28DF8050028128DF80600E8B29C
:1045A0008DF8070006F00100A0B101AA02214FF426
:1045B000EA7001F021FC10B14FF0FF3082E70DF1FD
:1045C000060202214FF4927001F016FC10B14FF078
:1045D000FF3077E706F00200A0B101AA02214FF4F4
:1045E000EC7001F009FC10B14FF0FF306AE70DF1FB
:1045F000060202214FF4947001F0FEFB10B14FF05F
:10460000FF305FE706F00400A0B101AA02214FF4D9
:10461000EE7001F0F1FB10B14FF0FF3052E70DF1F9
:10462000060202214FF4967001F0E6FB10B14FF044
:10463000FF3047E7002045E70000484300004046C0
:104640000000C045000040450000C04438B50446A5
:10465000052094FBF0F085B228128DF80000E8B236
:104660008DF801006A4602214FF4EF7001F0C4FB9F
:1046700038BD38B50446052094FBF0F085B2281209
:104680008DF80000E8B28DF801006A4602214FF46F
:10469000ED7001F0B1FB38BD0D4A1278012A0BD143
:1046A00000BF0C4A128802F04002002AF9D0C2B2C0
:1046B000084B1B1D1A800AE000BF074A128802F04F
:1046C0004002002AF9D0C2B2034B1B1D1A8070476A
:1046D0003300002000440040003801407CB505460E
:1046E00028494968087801AB04220D2100F010FB2D
:1046F00008B107207CBD9DF80700C0F301109DF8AC
:10470000041001F0E00140EAE1008DF800009DF89E
:104710000700C0F381009DF8051001F0E00140EAB8
:10472000E1008DF801009DF8070000F003009DF8FE
:10473000061001F0E00140EAE1008DF802000024DB
:104740001CE01DF8040018B9002045F8240013E00F
:104750000D4845F8240006E055F824000B4903F005
:1047600051F945F824001DF80400401EC0B20DF8B0
:1047700004000028F0D100BF601CC4B2032CE0DBB1
:104780000020B7E7740600207B14AE3E1D5A843F1C
:104790002DE9F04F87B005460C46914601208DF873
:1047A000100000208DF81100FE4A1268917CFD4A2D
:1047B0005268107804AB022200F0E5FA20B14FF005
:1047C000FF3007B0BDE8F08FC820FFF73FF90020A9
:1047D0008DF81000F34A1268D17BF24A52681078C3
:1047E00004AB012200F0CFFA10B14FF0FF30E8E740
:1047F000EC4A12685179EB4A5268107804AB0122F6
:1048000000F0C1FA10B14FF0FF30DAE7E54A126864
:10481000917CE44A5268107804AB012200F0B3FAAC
:1048200010B14FF0FF30CCE7DE4A1268D17DDD4A8F
:104830005268107804AB012200F0A5FA10B14FF0D5
:10484000FF30BEE7D74A12681179D64A526810780D
:1048500004AB012200F097FA10B14FF0FF30B0E73F
:104860000C208DF81000CF4A12681179CD4A526899
:10487000107804AB012200F086FA10B14FF0FF303F
:104880009FE70F20FFF7E2F8C648806A407A8DF86C
:104890001000C44A12689178C24A5268107804AB7A
:1048A000012200F070FA10B14FF0FF3089E7BD48E7
:1048B000806A007A8DF81000BA4A12685178B94AB5
:1048C0005268107804AB012200F05DFA10B14FF08D
:1048D000FF3076E7B9F1000F07D0B248806A807ADE
:1048E00040F0E0008DF8100004E0AE48806A807A65
:1048F0008DF81000AB4A12689179AA4A5268107874
:1049000004AB012200F03FFA10B14FF0FF3058E73E
:10491000B9F1000F07D0A348806AC07A40F0E000E8
:104920008DF8100003E0A048C07A8DF810009D4A71
:104930001268D1799B4A5268107804AB012200F0CA
:1049400022FA10B14FF0FF303BE7B9F1000F02D06F
:10495000C820FFF77BF840208DF81000914A1268BC
:104960001179904A5268107804AB012200F00BFADA
:1049700010B14FF0FF3024E778208DF81000894AFD
:1049800012685179874A5268107804AB012200F00E
:10499000FAF910B14FF0FF3013E783498889FFF728
:1049A00055F800208DF810007E4A126851797D4A32
:1049B0005268107804AB012200F0E5F910B14FF015
:1049C000FF30FEE6774A1268917A764A526810788C
:1049D00004AB022200F09CF910B14FF0FF30F0E67A
:1049E0009DF811009DF8101040EA012B0C209BFB54
:1049F000F0F0C6B20020A86068602860A060606027
:104A00002060824665E0674A1268D17A654A52683A
:104A1000107804AB0C2200F07BF910B14FF0FF309E
:104A2000CFE69DF811009DF8101040EA012000B279
:104A3000ADF808009DF813009DF8121040EA01201F
:104A400000B2ADF80A009DF815009DF8141040EA78
:104A5000012000B2ADF80C00BDF908102068084430
:104A60002060BDF90A10606808446060BDF90C1050
:104A7000A0680844A0609DF817009DF8161040EA51
:104A8000012000B2ADF800009DF819009DF8181043
:104A900040EA012000B2ADF802009DF81B009DF82D
:104AA0001A1040EA012000B2ADF80400BDF9001070
:104AB000286808442860BDF90210686808446860E6
:104AC000BDF90410A8680844A8600AF1010000F0CC
:104AD000FF0AB24597DB3448D0F800C02868C117F8
:104AE000090441EA10410704624600233846FBF7F7
:104AF000B6FB32460023CDE90201FBF7B0FB28608C
:104B00002948D0F800C06868C117090441EA10417B
:104B10000704624600233846FBF7A1FB3246002318
:104B2000CDE90201FBF79BFB68601F48D0F800C08D
:104B3000A868C117090441EA10410704624600232E
:104B40003846FBF78CFB32460023CDE90201FBF728
:104B500086FBA8601448D0F804C02168C817000478
:104B600040EA11480F046246002338464146FBF7ED
:104B700076FB32460023CDE90201FBF770FB206093
:104B80000948D0F804C06068C117090441EA10411F
:104B90000704624600233846FBF761FB32460023D8
:104BA00004E00000740600201C860008CDE9020124
:104BB000FBF755FB60601148D0F804C0A068C1172E
:104BC000090441EA10410704624600233846FBF716
:104BD00046FB32460023CDE90201FBF740FBA06013
:104BE000A068002804DDA068A0F58030A06003E084
:104BF000A06800F58030A0600020E2E51C86000877
:104C00002DE9FC5F06460F4600253D4949680878B6
:104C100001AB03220D2100F07BF810B10720BDE8A5
:104C2000FC9F9DF8040000F01F008DF804009DF823
:104C3000050000F01F008DF805009DF8060000F04B
:104C40001F008DF80600002456E056F8240057F89F
:104C50002410A0EB010BBBF1000F01DB594601E072
:104C6000CBF10001084602F06DFE4FF08F4100903D
:104C700002F036FD814601A8005D68B3214908684D
:104C800002F078FE834659461F4802F029FD80460F
:104C900004E01E49404602F0B5FE804601A8005DD2
:104CA000401EC0B201A908550028F2D1414648462D
:104CB00002F016FD83464FF07E5102F0A1FF8246BE
:104CC0002AF0004B0F488169584602F067FF12D264
:104CD0000120A04005430EE00A480169484602F061
:104CE0005DFE05D307484169484602F057FF02D2EE
:104CF0000120A0400543641C032CA6DB28468EE758
:104D0000740600201C86000800B04C4554E3853F23
:104D10002DE9F04106460F4614461D46FCF782FC7D
:104D200010B90120BDE8F0817106080EFCF748FCBF
:104D3000FCF7D0FC18B9FCF7A9FC0120F2E73846D3
:104D4000FCF73EFCFCF7C6FCFCF76CFC012101EB18
:104D50004601C8B2FCF734FCFCF7BCFC0DE0012CAA
:104D600004D10020FCF7F4FB287003E00120FCF7DD
:104D7000EFFB28706D1C601EC4B2002CEFD1FCF755
:104D800085FC0020CEE72DE9F04105460E4617468A
:104D90009846FCF747FC10B90120BDE8F081690690
:104DA000080EFCF70DFCFCF795FC18B9FCF76EFC3F
:104DB0000120F2E73046FCF703FCFCF78BFC0024F3
:104DC0000BE018F80400FCF7FBFBFCF783FC18B9B8
:104DD000FCF75CFC0020E0E7641CBC42F1DBFCF764
:104DE00055FC0020D9E770B50546284600F00FF8BD
:104DF0000446E81C00F00BF844EAC00084B2A81D89
:104E000000F005F844EA801084B2204670BD0146E7
:104E100091F90020002A01DD00201EE091F9002018
:104E2000002A01DA042018E091F90120002A01DDAE
:104E3000012012E091F90120002A01DA05200CE09E
:104E400091F90220002A01DD022006E091F90220FA
:104E5000002A01DA062000E0072070474FF4A06026
:104E6000FCF7CCFDFEF7D0FDFCF7F6FC4FF4E1308B
:104E700001F0B6FCFCF758FEFCF72EF9FCF77CF9C4
:104E8000FCF700FDFBF7CCFE012016490860FCF79B
:104E900065FD002141F61F40FCF7FAFF4FF4165064
:104EA00001F04AFCFCF798F8FBF738FE00F0ECFF45
:104EB00016E0FBF755FD01F05DF801200A49087086
:104EC00000200A49087000BF074800780028FBD17D
:104ED0000448006808B9012000E00020014908608A
:104EE000E7E70000888122422A00002028000020F5
:104EF00070B50446002624F00104184890F82400F8
:104F000008B1002070BD1548807A10B94FF0FF300D
:104F1000F8E71248057C807A20401049087408465A
:104F2000007CA04202D04FF0FF3600E0002614B90A
:104F30000A48007D18B1012001F05AFA02E0002071
:104F400001F056FA3CB100F049FB20B1034805746A
:104F50004FF0FF30D6E73046D4E70000740600205B
:104F600001461148407A30B1012807D0022808D004
:104F700003280CD108E0022008700BE00420087020
:104F800008E00820087005E01020087002E04FF0EB
:104F9000FF30704700BF0448C07C18B10878400655
:104FA000000E08700020F4E7740600200146134844
:104FB000407A30B1012808D002280AD0032810D145
:104FC0000BE04FF4804008800EE041F69C700880B2
:104FD0000AE04FF48050088006E04FF4006008803B
:104FE00002E04FF0FF30704700BF0448C07C10B1B2
:104FF0000888401008800020F5E7000074060020B3
:1050000001460248007C08700020704774060020AA
:1050100001460F48007A30B1012807D0022809D094
:1050200003280FD10AE0FA2008800EE04FF4FA704E
:1050300008800AE04FF47A70088006E04FF4FA60C6
:10504000088002E00020088000BF00BF00207047F9
:105050007406002001460E48007A30B1012807D0BE
:10506000022808D003280CD108E00A4808600BE0A9
:105070000948086008E00948086005E00848086039
:1050800002E04FF0FF30704700BF0020FBE7000058
:1050900074060020000003430000834233330342C0
:1050A0003333834101461248C07A082817D2DFE81B
:1050B00000F01704070A0D101318BC20088013E035
:1050C0006220088010E02A2008800DE0142008806B
:1050D0000AE00A20088007E00520088004E000BFFD
:1050E00000BF0020088000BF00BF00207047000004
:1050F000740600200146064890F8240010B14FF0D5
:10510000FF3070470248C08908800020F9E700009E
:10511000740600201CB580208DF80000654A1268D6
:10512000917C644A526810786B460122FFF72BFE8F
:1051300010B14FF0FF301CBD6420FEF787FC00204B
:105140008DF800005B4A1268917C5A4A52681078C8
:105150006B460122FFF717FE10B14FF0FF30EAE770
:10516000544A1268917D534A526810786B46062261
:10517000FFF7CEFD10B14FF0FF30DCE79DF80500E2
:10518000C007400F9DF8031001F0010140EA410003
:105190009DF8011001F0010140EA010494B1012CD5
:1051A00003D101214348C17431E0022C03D1002115
:1051B0004048C1742BE021463FA0FBF775F84FF043
:1051C000FF30B8E73B4A1268D1783A4A5268107803
:1051D0006B460122FFF79CFD10B14FF0FF30AAE7AC
:1051E0009DF8000000F00F042CB93D48FBF75CF877
:1051F0004FF0FF309FE7042C06D13AA0FBF754F89C
:1052000001212C48C17402E000212A48C174FF2109
:1052100028488172FF2027490872FF2125484172E2
:10522000C1724FF6FF71C181FF21017481740121A8
:10523000017380F82210002180F823104175017558
:105240001630016041608160163880F8241080F8C3
:105250002510C1844FF4FA6000F05CFC10B14FF0EF
:10526000FF3068E7022000F025FB10B14FF0FF305F
:1052700061E72A2000F0C8FC10B14FF0FF305AE778
:10528000322000F003FD10B14FF0FF3053E7002053
:10529000FFF72EFE10B14FF0FF304CE7002000F07A
:1052A0004BFB10B14FF0FF3045E7002000F03CFD14
:1052B000002040E774060020556E737570706F72A1
:1052C00074656420736F6674776172652070726FA5
:1052D00064756374207265762025642E0A000000D0
:1052E0005893000848616C662073656E7369746931
:1052F00076697479207061727420666F756E642EA1
:105300000D0A00002DE9F04385B005460E46904693
:105310009946294890F8250020B14FF0FF3005B09C
:10532000BDE8F08316B94FF0FF30F8E7002423E022
:10533000281B102801DD102000E0281B87B232193D
:105340003946204600F058FD10B14FF0FF30E6E737
:1053500001AA3946204600F001F910B14FF0FF30A4
:10536000DDE730193A4601A9FBF746F810B16FF0B6
:105370000100D4E7E01984B2AC42D9DB4FEA28201F
:105380008DF8000008F0FF008DF801000A4A12684D
:10539000917E094A526810786B460222FFF7F3FCAF
:1053A00010B14FF0FF30BAE70121034880F8251013
:1053B000A0F826900020B2E77406002038B5044615
:1053C000282C02DD4FF0FF3038BDDCB9002000F0A2
:1053D000E5FB00208DF8000007208DF801002E4A23
:1053E0001268917C2C4A526810786B460222FFF7B3
:1053F000CAFC10B14FF0FF30E6E7002126480175E6
:105400000020E1E7012000F0C9FB20208DF800001A
:10541000012C06D100208DF80100052000F0F4FBDE
:1054200017E0052C06DC01208DF80100052000F0B6
:10543000EBFB0EE0142C06DC02208DF801000A20A4
:1054400000F0E2FB05E003208DF80100142000F0DD
:10545000DBFB9DF80100072101EB8010C0B28DF845
:1054600001000D4A1268917C0B4A526810786B4615
:105470000222FFF788FC10B14FF0FF30A4E70821AB
:105480000548817200210173012101750020FFF799
:105490002FFD002098E7000074060020F8B50446B0
:1054A0000F4616462C4890F8240010B94FF0FF30F4
:1054B000F8BD2948807A10B94FF0FF30F8E7264A46
:1054C0001268917A244A526810786B460222FFF7DC
:1054D0001FFC10B14FF0FF30EAE79DF801009DF886
:1054E000001040EA0125A54203DA00203070401E7A
:1054F000DEE7194840684088B5EB600F17DD164AB3
:105500001268517C144A526810786B460122FFF7EA
:10551000FFFB10B14FF0FF30CAE79DF8000000F02C
:10552000100020B100F05AF86FF00100C0E7E2B2BD
:10553000094B1B68D97A084B5B6818783B46FFF724
:10554000E7FB10B14FF0FF30B2E795FBF4F0401EDF
:1055500030700020ACE7000074060020F8B5044667
:105560000D46164616B94FF0FF30F8BD1A48807A3E
:1055700010B94FF0FF30F8E720128DF80000E0B2CC
:105580008DF801009DF801002844134949684989B4
:10559000884202DD4FF0FF30E7E70F4A1268117EC4
:1055A0000D4A526810786B460222FFF7ECFB10B1EF
:1055B0004FF0FF30D9E7EAB2074B1B68597D064B25
:1055C0005B6818783346FFF7A3FB10B14FF0FF304C
:1055D000CBE70020C9E700007406002008B56D483D
:1055E000807A10B94FF0FF3008BD00200090694A62
:1055F0001268D17B674A526810786B460122FFF728
:10560000C2FB10B14FF0FF30EEE7624A12685179E9
:10561000604A526810786B460122FFF7B4FB10B164
:105620004FF0FF30E0E75B4A12681179594A52683F
:1056300010786B460122FFF7A6FB10B14FF0FF3048
:10564000D2E7544890F82400002850D00C20009055
:10565000504A126811794F4A526810786B460122FD
:10566000FFF791FB10B14FF0FF30BDE7C020009075
:105670004848807A00F0010020B19DF8000040F019
:1056800020000090434A12681179424A526810780B
:105690006B460122FFF777FB10B14FF0FF30A3E715
:1056A0003C48407C10B10220009001E000200090B6
:1056B000384A1268D17B374A526810786B4601220B
:1056C000FFF761FB10B14FF0FF308DE70020009035
:1056D000304A126851792F4A526810786B4601227D
:1056E000FFF751FB002852D04FF0FF307CE7042039
:1056F0000090284A12681179264A526810786B4641
:105700000122FFF740FB10B14FF0FF306CE721485A
:10571000807C20B91F48807A00F0010010B9402039
:10572000009001E0602000901A4A12681179194A2D
:10573000526810786B460122FFF725FB10B14FF03D
:10574000FF3051E71348407C10B10120009001E088
:10575000002000900F4A1268D17B0E4A52681078E0
:105760006B460122FFF70FFB10B14FF0FF303BE714
:10577000084A12685179074A52681078054B10336D
:105780000122FFF700FB10B14FF0FF302CE70020A3
:105790002AE70000740600202DE9F04F8DB0834603
:1057A0000F4602200C90424890F8240020B10020BF
:1057B00000F068F9012600E0002603A8FFF728FCA6
:1057C00005A8FFF7CDFB01A8FFF76CFC02A8FFF7C7
:1057D00091FC374890F80AA004A8FFF711FC0024B8
:1057E00007E0002239465846FEF7D2FF00B902E032
:1057F000641C022CF5DB00BF022C01D1002528E03F
:10580000002407E0012206A909A8FEF7C1FF00B99C
:1058100002E0641C022CF5DB00BF022C01D1002544
:1058200017E006A93846FDF7E7FC00F0FF0809A9D4
:105830005846FFF7E5F900F0FF090025B9F1000F20
:1058400001D145F00105B8F1000F01D145F0020585
:1058500000BFFF2016490872FF2115484172C1722E
:105860004FF6FF71C181FF21817201740121017323
:10587000BDF80C0000F04EF99DF8140000F01AF885
:10588000BDF8040000F0C0F9BDF8080000F0FEF912
:10589000504600F049FA9DF81000FFF729FB16B1B9
:1058A000012000F0EFF828460DB0BDE8F08F0000B1
:1058B0007406002038B504461E48807A10B94FF0AF
:1058C000FF3038BD022C06D0042C07D0082C08D09D
:1058D000102C0CD108E0002000900BE00820009074
:1058E00008E01020009005E01820009002E04FF042
:1058F000FF30E6E700BF0F48407A9DF80010B0EB9C
:10590000E10F01D10020DCE70A4A1268D179094A87
:10591000526810786B460122FFF735FA10B14FF04C
:10592000FF30CEE79DF80000C11002484172002010
:10593000C7E700007406002038B504465048807C54
:10594000A04201D1002038BD002C46D04C4A12683C
:1059500011794B4A526810786B460122FFF7D8F94B
:1059600010B14FF0FF30EEE79DF8000020F020006E
:105970000090434A12681179414A526810786B4688
:105980000122FFF700FA10B14FF0FF30DBE70320F0
:10599000FEF75CF802200090394890F8220020B110
:1059A0009DF8000040F080000090354890F82300FA
:1059B00020B19DF8000040F030000090304A12689D
:1059C000117D2F4A526810786B460122FFF7DBF9F0
:1059D000002851D04FF0FF30B5E7294A12681179FD
:1059E000274A526810786B460122FFF791F910B1EF
:1059F0004FF0FF30A7E72248807A00F0010028B17D
:105A00009DF8000040F02000009004E09DF80000A8
:105A100020F0200000901A4A12681179184A526842
:105A200010786B460122FFF7AEF910B14FF0FF304E
:105A300089E70320FEF70AF8114890F8220010B118
:105A40008020009001E0002000900D4890F8230095
:105A500020B19DF8000040F030000090084A126824
:105A6000117D074A526810786B460122FFF78BF9C7
:105A700010B14FF0FF3066E701488474002062E700
:105A80007406002038B50446214890F82400A0424E
:105A900001D1002038BD24B31D4890F8250010B96D
:105AA0004FF0FF30F6E7002000F0A2FC0020FFF7E7
:105AB00043FF1749C88C00F0E9F800200090144912
:105AC000496808786B4601222321FFF75CF9012120
:105AD0000F4880F82410012000F08AFCFFF77EFDBB
